:03000000020006F5
:03005F0002000399
:030003000203B441
:20006200901003E0FE3395E0FFBE1205BF0002800CBE2105BF000280047F0080027F01008A
:2000820000000000000000000000000000000000EF6007901007E0FE80027E1290E600EE0D
:2000A200F00000000000000000000000000000000000EF6007901004E0FF80027FC390E63B
:2000C20001EFF0000000000000000000000000000000000090E60B7403F000000000000056
:2000E200000000000000000000000090E670E4F00000000000000000000000000000000044
:200102000090E6097404F0000000000000000000000000000000000090E614E4F000000098
:20012200000000000000000000000000000090E612E4F00000000000000000000000000061
:200142000000000090E61AE4F0000000000000000000000000000000000090E618E4F000D7
:200162000000000000000000000000000000000075B200901003E0FE3395E0FFBE1205BF9A
:2001820000028003020274901005E0FD90E614F00000000000000000000000000000000064
:2001A2000090E6047480F0000000000000000000000000000000000090E6047402F00000FF
:2001C20000000000000000000000000000000090E6047404F000000000000000000000003B
:2001E20000000000000090E6047406F0000000000000000000000000000000000090E6049F
:200202007408F0000000000000000000000000000000000090E604E4F00000000000000022
:2002220000000000000000000000901006E0FD90E61AF000000000000000000000000000B9
:200242000000000090E6247402F0000000000000000000000000000000000090E625E4F02D
:20026200000000000000000000000000000000000022BE2105BF0002800122901005E0FF8E
:2002820090E612F0000000000000000000000000000000000090E6047480F0000000000086
:2002A20000000000000000000000000090E6047482F00000000000000000000000000000DC
:2002C20000000090E6047484F0000000000000000000000000000000000090E6047486F056
:2002E200000000000000000000000000000000000090E6047488F000000000000000000096
:20030200000000000000000090E604E4F0000000000000000000000000000000000090E617
:20032200497482F0000000000000000000000000000000000090E6497482F00000000000E7
:20034200000000000000000000000000901005E0FF3395E05307037E00BF0005BE00028090
:2003620008BF0333BE0030801790E6497482F0000000000000000000000000000000000054
:2003820090E6497482F00000000000000000000000000000000000901006E0FF90E618F0B3
:1703A20000000000000000000000000000000000002212006280FE30
:06003500E478FFF6D8FD9F
:200013007900E94400601B7A009003BD780175A000E493F2A308B8000205A0D9F4DAF275D3
:02003300A0FF2C
:20003B007800E84400600A790175A000E4F309D8FC7800E84400600C7900900001E4F0A3C3
:04005B00D8FCD9FAFA
:0D0006007581071203B9E582600302000353
:0403B9007582002227
:00000001FF
